:020000040000FA
:0600000000308A008C288C
:02000800862848
:04000A00003400348A
:02000E001F30A1
:10001000A300A30B0928000000000800F830A3008B
:100020000000A30B10280000000000000800A4003E
:100030000E20A40B18280800A50064301720A50B7B
:100040001D2808009F149F1C23281E08080006086E
:100050000139A60014301720060801392606031DB1
:100060002728260808000808A80088012808C039A1
:10007000880008162220C039A700A71B4728271B85
:100080004428081401304E28881402304E28271BBB
:100090004C28081504304E2888150830A700272062
:1000A00006183528880103301C20270888000430F2
:1000B0001C20880103301C2028088800270808001D
:1000C0000808A80088012808C039880008162220DE
:1000D000C039A7000310A70CA70CA70CA70CA70CEE
:1000E000A70C0808FC392704880027200618622876
:1000F000880103301C202708880004301C20880158
:1001000003301C2028088800270808008B188B1053
:10011000831203130814090000008501860187017A
:10012000880189018316031789010130880083162D
:1001300003130130850001308600003087008801FC
:10014000F83089000108083981009F0183120313E8
:1001500041309F00FF30880003301C2088010330AD
:100160001C20831203130610831603130614831234
:0C01700003130B168B108B170000BC282B
:02400E00A4000C
:02401000FF3E71
:00000001FF
