:020000040000FA
:0600000000308A002128F7
:020008002028AE
:04000A00003400348A
:100040000900000085018601870188018901831666
:1000500003178901013088008316031301308500DE
:1000600001308600003087008801F83089000108DF
:10007000083981009F018312031341309F00FF3034
:100080008800033084208801033084200130A000E0
:100090001C30A2000000200806189B20A000201899
:1000A0005728A0185A2820195D28A0196028013067
:1000B000A10063280130A10063280530A100632856
:1000C0000C30A1006328880188141C30A20022088B
:0E00D0002106031908146F20A20B67284A2886
:0200DE001F30D1
:1000E000A400A40B7128000000000800F830A40050
:1000F0000000A40B78280000000000000800A50004
:100100007620A50B80280800A60064307F20A60B6F
:10011000852808009F149F1C8B281E0808000608CD
:100120000139A70014307F20060801392706031D76
:100130008F28270808000808A90088012908C03965
:10014000880008168A20C039A800A81BAF28281BE1
:10015000AC2808140130B62888140230B628281BB1
:10016000B42808150430B62888150830A8008F2058
:1001700006189D2888010330842028088800043050
:10018000842088010330842029088800280808007A
:100190000808A90088012908C039880008168A20A3
:1001A000C039A8000310A80CA80CA80CA80CA80C17
:1001B000A80C0808FC39280488008F200618CA28D3
:1001C00088010330842028088800043084208801B6
:0C01D0000330842029088800280808005B
:02400E00A4000C
:02401000FF3E71
:00000001FF
