:020000040000FA
:0600000000308A002128F7
:020008002028AE
:04000A00003400348A
:100040000900000085018601870188018901831666
:1000500003178901013088008316031301308500DE
:1000600001308600003087008801F83089000108DF
:10007000083981009F018312031341309F00FF3034
:10008000880003306E20880103306E20000088173E
:10009000B220A100A10DA10DA10788130817B2205D
:1000A000A20008132108220688000817881757287D
:0200B0004628E0
:0E00B2001F30A300A30B5B2800000000080015
:1000C000F830A3000000A30B62280000000000002D
:1000D0000800A4006020A40B6A280800A500643072
:1000E0006920A50B6F2808009F149F1C75281E0807
:1000F000080006080139A6001430692006080139F5
:100100002606031D7928260808000808A80088018B
:100110002808C039880008167420C039A700A71B1A
:100120009928271B962808140130A028881402302B
:10013000A028271B9E2808150430A0288815083001
:10014000A700792006188728880103306E20270829
:10015000880004306E20880103306E202808880053
:10016000270808000808A80088012808C039880066
:1001700008167420C039A7000310A70CA70CA70C01
:10018000A70CA70CA70C0808FC39270488007920C5
:100190000618B428880103306E2027088800043030
:1001A0006E20880103306E20280888002708080088
:02400E00A4000C
:02401000FF3E71
:00000001FF
