:020000040000FA
:060000000A128A11FC2F18
:100D460083120313060801390800831203139F1444
:100D56009F18AE2EAF2EAB2E1E080800831203136B
:100D660006080139F0007008F2001A30F100F83078
:100D7600F000F00BBC2EF10BBC2E00008312031307
:100D8600060801397206031DC92ECA2EB12E720835
:100D96000800831203130808F3007308F7001030E5
:100DA60088000A128A11A8260A128A11F30073080B
:100DB600F600F60EF60CF60C0330F605F42EF801E6
:100DC600F80A0A2F0230F3007308F8000A2F0430DD
:100DD600F3007308F8000A2F0830F3007308F800D0
:100DE6000A2F7608F300F4017408003A0319FC2E62
:100DF6000A2F7308003A0319E22E013A0319E52E69
:100E0600033A0319EA2E013A0319EF2E0A2F77083F
:100E1600C039780410388312031388000A128A1125
:100E2600B1260A128A11003A031D1A2F1B2FD42E3F
:100E36008312031388010230F5008630F4009930DE
:100E4600F300F30B242FF40B242FF50B242F780833
:100E56008312031388000330F5000830F40077305E
:100E6600F300F30B342FF40B342FF50B342F8312CE
:100E7600031388010230F5008630F4009930F30040
:100E8600F30B432FF40B432FF50B432F77088312F5
:100E9600031388007808080083120313850186016E
:100EA60087018801890183160317890101308800AB
:100EB60001308316031385000130860087018801FF
:100EC600F8308900083081009F01413083120313F6
:100ED6009F00FF3088000230FB008630FA00993010
:100EE600F900F90B742FFA0B742FFB0B742F831276
:100EF600031388010230FB008630FA009930F900AE
:100F0600F90B832FFA0B832FFB0B832F0A128A11FF
:100F1600A3260A128A11003A0319922F932FC82F7B
:100F26008312031388010A128A11CC260A128A1127
:100F3600F900790883120313A4002403031DA42FC8
:100F4600A52FAA2F0130A0000030A100892F023062
:100F56002406031DAF2FB02FB12FA52F0430240672
:100F6600031DB62FB72FBC2F0530A0000030A100FF
:100F7600892F08302406031DC12FC22FC72F0C301E
:100F8600A0000030A100892F892F0230831203139D
:100F960088001C30A2000030A3008312031321082E
:100FA6002306031DD82F20082206031DDB2FDC2F66
:100FB600DF2F0808013888002130F900F90BE12FEE
:100FC600FF3083120313A2070318A30AFF30A307F7
:100FD6002308803AFF0080307F02031DF42F013082
:100FE60022020318F72FF82FD02F892F0A128A1101
:0A0FF600002883010A128A114F2F10
:04400E00E4E0FFFEED
:00000001FF
