:020000040000FA
:060000000A128A11FC2F18
:100DDC00831203139F149F18F42EF52EF12E1E0868
:100DEC000800F300F201731CFC2EFD2E012F70087D
:100DFC00F1007108F2070310F00D0310F30C7308E7
:100E0C00031D092F0A2FF92E7208080083120313F1
:100E1C0006080139F0007008F2001A30F100F830C1
:100E2C00F000F00B172FF10B172F00008312031398
:100E3C00060801397206031D242F252F0C2F72086A
:100E4C000800831203130808F3007308F60010302F
:100E5C0088000A128A11EE260A128A11F30073080E
:100E6C00F700F70EF70CF70C0330F7057608C039CE
:100E7C00770410388312031388000A128A110C2786
:100E8C000A128A11003A031D4C2F4D2F2F2F83125B
:100E9C00031388010230F5008630F4009930F3001A
:100EAC00F30B562FF40B562FF50B562F7708831296
:100EBC00031388000330F5000830F4007730F3009A
:100ECC00F30B662FF40B662FF50B662F83120313AF
:100EDC0088010230F5008630F4009930F300F30BF2
:100EEC00752FF40B752FF50B752F760883120313E2
:100EFC008800770808008312031385018601870197
:100F0C00880189018316031789010130880001309B
:100F1C008316031385000130860087018801F830A1
:100F2C008900083081009F014130831203139F0018
:100F3C00FF3088000230FA008630F9009930F80052
:100F4C00F80BA62FF90BA62FFA0BA62F831203135F
:100F5C0088010230FA008630F9009930F800F80B5D
:100F6C00B52FF90BB52FFA0BB52F83120313881776
:100F7C0008130A128A1127270A128A11F800780816
:100F8C00FB0083120313881308170A128A112727F0
:100F9C000A128A11F8007808FC000530F80078086D
:100FAC00F0007B080A128A11F7260A128A11F9003E
:100FBC007908FD007D087C06F8007808FD007D08A6
:100FCC00831203138800881708170830FA009D3025
:100FDC00F9000530F800F80BF12FF90BF12FFA0B93
:100FEC00F12FF82FBB2F0A128A11002883010A1245
:040FFC008A11812FA6
:04400E00E4E0FFFEED
:00000001FF
