:020000040000FA
:060000000A128A11FC2F18
:100C4000831203139F149F18262E272E232E1E086F
:100C500008008312031306080139F0007008F2003F
:100C60001A30F100F830F000F00B342EF10B342E76
:100C7000000083120313060801397206031D412E7A
:100C8000422E292E72080800831203130808F3006D
:100C90007308F700103088000A128A1120260A1201
:100CA0008A11F3007308F600F60EF60CF60C03300A
:100CB000F6056C2EF801F80A822E0230F300730854
:100CC000F800822E0430F3007308F800822E0830FA
:100CD000F3007308F800822E7608F300F40174081C
:100CE000003A0319742E822E7308003A03195A2E03
:100CF000013A03195D2E033A0319622E013A0319D2
:100D0000672E822E7708C0397804103883120313B7
:100D100088000A128A1129260A128A11003A031D34
:100D2000922E932E4C2E8312031388010230F5006D
:100D30008630F4009930F300F30B9C2EF40B9C2EBC
:100D4000F50B9C2E78088312031388000330F500FE
:100D50000830F4007730F300F30BAC2EF40BAC2E1C
:100D6000F50BAC2E8312031388010230F500863098
:100D7000F4009930F300F30BBB2EF40BBB2EF50BF4
:100D8000BB2E7708831203138800780808008312AB
:100D900003138501860187018801890183160317E2
:100DA000890101308800013083160313850001306A
:100DB000860087018801F8308900083081009F0192
:100DC0004130831203139F00FF3088000230FB0084
:100DD0008630FA009930F900F90BEC2EFA0BEC2E64
:100DE000FB0BEC2E8312031388010230FB008630CC
:100DF000FA009930F900F90BFB2EFA0BFB2EFB0BD6
:100E0000FB2E0A128A1144260A128A11F900790867
:100E1000FC00E32F83120313881208138817023093
:100E2000FB008630FA009930F900F90B152FFA0B08
:100E3000152FFB0B152F8312031388130230FB00B1
:100E40008630FA009930F900F90B242FFA0B242F81
:100E5000FB0B242F8312031388170230FB0086300C
:100E6000FA009930F900F90B332FFA0B332FFB0BF3
:100E7000332F8312031388130230FB008630FA00ED
:100E80009930F900F90B422FFA0B422FFB0B422F3E
:100E90008312031388170230FB008630FA00993062
:100EA000F900F90B512FFA0B512FFB0B512F831225
:100EB000031388130230FB008630FA009930F900E2
:100EC000F90B602FFA0B602FFB0B602F83120313BB
:100ED00088170230FB008630FA009930F900F90BD0
:100EE0006F2FFA0B6F2FFB0B6F2F831203138813D7
:100EF0000230FB008630FA009930F900F90B7E2FA2
:100F0000FA0B7E2FFB0B7E2F831203138817023000
:100F1000FB008630FA009930F900F90B8D2FFA0B9F
:100F20008D2FFB0B8D2F8312031388130230FB00D0
:100F30008630FA009930F900F90B9C2FFA0B9C2FA0
:100F4000FB0B9C2F012F8312031388170817881699
:100F50000330FB008A30FA005530F900F90BAE2F50
:100F6000FA0BAE2FFB0BAE2FB52F83120313881392
:100F70000813012F831203138817081388120330F4
:100F8000FB008A30FA005530F900F90BC52FFA0B37
:100F9000C52FFB0BC52FCC2F831203138813012FF2
:100FA000831203138813081388160330FB008A305A
:100FB000FA005530F900F90BDB2FFA0BDB2FFB0B96
:100FC000DB2FE22F012F7C08F900FA017A08003AA2
:100FD0000319EB2F012F7908013A03190A2F033A5D
:100FE0000319A32F063A0319BA2F0C3A0319D02F6D
:100FF000012F0A128A11002883010A128A11C72EB2
:04400E00E4E0FFFEED
:00000001FF
