:020000040000FA
:0600000000308A002128F7
:020008002028AE
:04000A00003400348A
:100040000900000085018601870188018901831666
:1000500003178901013088008316031301308500DE
:1000600001308600003087008801F83089000108DF
:10007000083981009F018312031341309F00FF3034
:100080008800033078208801033078200814881411
:1000900008158815831603130F178F160F1683166E
:1000A0000313870183160313EB30920083120313AB
:1000B0006C309700831203131230950083120313E0
:0600C0001215000061288A
:0A00C6001F30A300A30B6528000003
:1000D00000000800F830A3000000A30B6C2800000B
:1000E000000000000800A4006A20A40B7428080087
:1000F000A50064307320A50B792808009F149F1C6D
:100100007F281E08080006080139A6001430732055
:10011000060801392606031D83282608080008085A
:10012000A80088012808C039880008167E20C03938
:10013000A700A71BA328271BA02808140130AA2862
:1001400088140230AA28271BA82808150430AA28DA
:1001500088150830A70083200618912888010330ED
:100160007820270888000430782088010330782020
:1001700028088800270808000808A800880128081F
:10018000C039880008167E20C039A7000310A70CCC
:10019000A70CA70CA70CA70CA70C0808FC39270470
:1001A000880083200618BE2888010330782027089D
:1001B00088000430782088010330782028088800DF
:0401C0002708080004
:02400E00A4000C
:02401000FF3E71
:00000001FF
