:020000040000FA
:0600000000308A003228E6
:020008002028AE
:04000A00003400348A
:1000400009008207003401340234033405340434D7
:10005000073406340A340B34083409340F340E34B0
:100060000D340C3400008501860187018801890167
:1000700083160317890101308800831603130130AA
:10008000850001308600003087008801F830890043
:100090000108083981009F018312031341309F003A
:1000A000FF30880003307E20880103307E2000006E
:1000B0008817C220A10088130817C220A2000813C5
:1000C000A10D210D22072120880008178817672815
:0200D0005728AF
:0E00D2001F30A300A30B6B28000000000800E5
:1000E000F830A3000000A30B7228000000000000FD
:1000F0000800A4007020A40B7A280800A500643032
:100100007920A50B7F2808009F149F1C85281E08B6
:10011000080006080139A6001430792006080139C4
:100120002606031D8928260808000808A80088015B
:100130002808C039880008168420C039A700A71BEA
:10014000A928271BA62808140130B02888140230DB
:10015000B028271BAE2808150430B02888150830B1
:10016000A700892006189728880103307E202708D9
:10017000880004307E20880103307E202808880013
:10018000270808000808A80088012808C039880046
:1001900008168420C039A7000310A70CA70CA70CD1
:1001A000A70CA70CA70C0808FC3927048800892095
:1001B0000618C428880103307E20270888000430F0
:1001C0007E20880103307E20280888002708080048
:02400E00A4000C
:02401000FF3E71
:00000001FF
