:020000040000FA
:0600000000308A002128F7
:020008002028AE
:04000A00003400348A
:100040000900000085018601870188018901831666
:1000500003178901013088008316031301308500DE
:1000600001308600003087008801F83089000108DF
:10007000083981009F018312031341309F00FF3034
:10008000880003309C20880103309C200000B320AE
:10009000A00020185128A018722820197A28A01929
:1000A0008028881703309C20881303309C208817F1
:1000B00003309C20881303309C20881703309C2039
:1000C000881303309C20881703309C20881303304A
:1000D0009C20881703309C20881303309C208801C3
:1000E000B320482888170817881603309C208801F9
:1000F000B3204828881703309C208801B320482863
:0E010000881603309C208801B320482846282A
:02010E001F30A0
:10011000A300A30B8928000000000800F830A3000A
:100120000000A30B90280000000000000800A400BD
:100130008E20A40B98280800A50064309720A50BFA
:100140009D2808009F149F1CA3281E08080006086D
:100150000139A60014309720060801392606031D30
:10016000A728260808000808A80088012808C03920
:1001700088000816A220C039A700A71BC728271B84
:10018000C42808140130CE2888140230CE28271B3A
:10019000CC2808150430CE2888150830A700A720E1
:1001A0000618B528880103309C20270888000430F1
:1001B0009C20880103309C2028088800270808001C
:1001C0000808A80088012808C03988000816A2205D
:1001D000C039A7000310A70CA70CA70CA70CA70CED
:1001E000A70C0808FC3927048800A7200618E22875
:1001F000880103309C202708880004309C20880157
:0C02000003309C20280888002708080014
:02400E00A4000C
:02401000FF3E71
:00000001FF
