:020000040000FA
:060000000A128A110C280F
:10000800FE00030EF0000A08F1000A128A114B29BB
:100018000A128A110F28F801F90183120313A001AB
:10002800A101A201A301A401A50183010A128A1159
:100038001D28831203138501860187018801890120
:1000480083160317890101308800013083160313D2
:1000580085000130860087018801F8308900083062
:1000680081009F014130831203139F00FF308800F5
:10007800023083120313AB008630AA009830A9001F
:10008800A90B4428AA0B4428AB0B44280000831270
:1000980003138801023083120313AB008630AA00D1
:1000A8009830A900A90B5628AA0B5628AB0B56283E
:1000B80000008316031301173130831203139000D5
:1000C8000C130C108B100B17831603130C170B163D
:1000D8000C148B170A128A11C8200A128A1183126B
:1000E8000313A9002908F9000A128A11A3210A1288
:1000F8008A117903031D8128822886288312031315
:100108002408880002307906031D8B288C28902843
:10011800831203132208880004307906031D9528EA
:1001280096289A2883120313200888000830790635
:10013800031D9F28A028A4288312031320088800E1
:100148000A128A1188210A128A1183120313A9003C
:100158002908F800BF280A128A1188210A128A1170
:1001680083120313A9002908F8007803031DBD288A
:10017800BE28BF286E2878080319C328C428AF28CA
:1001880078280A128A110C28831203130808F5002C
:100198007508A700103088000A128A11A3210A12D4
:1001A8008A11F500750883120313A600A60EA60C83
:1001B800A60C0330A605F228A801A80A08290230CF
:1001C800F5007508A80008290430F5007508A8008E
:1001D80008290830F5007508A80008292608F50040
:1001E800F6017608003A0319FA2808297508003A32
:1001F8000319E028013A0319E328033A0319E82808
:10020800013A0319ED2808292708C03928041038AD
:1002180088000A128A1188210A128A11003A031DDD
:1002280016291729D0288312031388010230F700F2
:100238008630F6009930F500F50B2029F60B2029B9
:10024800F70B202983120313280888000330F700CE
:100258000830F6007730F500F50B3029F60B302919
:10026800F70B30298312031388010230F700863018
:10027800F6009930F500F50B3F29F60B3F29F70BEF
:100288003F298312031327088800280808008316CB
:1002980003130C1C502951295E29831203130C1CCB
:1002A800562957295E290C100130A2070318A30A02
:1002B8000030A307831603130C1F632964297129CF
:1002C800831203130C1F69296A2971290C13013041
:1002D800A4070318A50A0030A5070B1E7429752961
:1002E80081298B1C7829792981298B100130831267
:1002F800A0070318A10A0030A10771088A00700E30
:100308008300FE0E7E0E09008312031306080139CE
:10031800F2007208F4001A30F300F830F200F20B21
:100328009329F30B9329000083120313060801395C
:100338007406031DA029A1298829740808008312BE
:1003480003139F149F18A929AA29A6291E08080083
:04400E00E4E0FFFEED
:00000001FF
