:020000040000FA
:0600000000308A002128F7
:020008002028AE
:04000A00003400348A
:100040000900000085018601870188018901831666
:1000500003178901013088008316031301308500DE
:1000600001308600003087008801F83089000108DF
:10007000083981009F018312031341309F00FF3034
:10008000880003307020880103307020831603132A
:100090009F17831203131F083C389F000330702002
:1000A0009F149F185128831603131E0883120313ED
:0600B00088000000592841
:0A00B6001F30A300A30B5D2800001B
:1000C00000000800F830A3000000A30B6428000023
:1000D000000000000800A4006220A40B6C280800A7
:1000E000A50064306B20A50B712808009F149F1C8D
:1000F00077281E08080006080139A60014306B2076
:10010000060801392606031D7B2826080800080872
:10011000A80088012808C039880008167620C03950
:10012000A700A71B9B28271B982808140130A2288A
:1001300088140230A228271BA02808150430A22802
:1001400088150830A7007B2006188928880103300D
:100150007020270888000430702088010330702048
:1001600028088800270808000808A800880128082F
:10017000C039880008167620C039A7000310A70CE4
:10018000A70CA70CA70CA70CA70C0808FC39270480
:1001900088007B200618B6288801033070202708C5
:1001A00088000430702088010330702028088800FF
:0401B0002708080014
:02400E00A4000C
:02401000FF3E71
:00000001FF
