:020000040000FA
:060000000A128A11EE2F26
:100D7200831203139F149F18BF2EC02EBC2E1E0871
:100D820008000034013402340334053404340734D7
:100D920006340A340B34083409340F340E340D345B
:100DA2000C347E088A007F0882000A128A11D22639
:100DB2000A128A118000840A04087D06031900348D
:100DC200FF0A0319FE0AD62E8312031306080139FD
:100DD200F0007008F2001A30F100F830F000F00B69
:100DE200F02EF10BF02E00008312031306080139D6
:100DF2007206031DFD2EFE2EE52E720808008312D8
:100E020003130808F3007308F600103088000A1272
:100E12008A11B9260A128A11F3007308F700F70E35
:100E2200F70CF70C0330F7057608C0397704103851
:100E32008312031388000A128A11E5260A128A1104
:100E4200003A031D252F262F082F83120313880132
:100E52000230F5008630F4009930F300F30B2F2FA7
:100E6200F40B2F2FF50B2F2F770883120313880013
:100E72000330F5000830F4007730F300F30B3F2F16
:100E8200F40B3F2FF50B3F2F83120313880102301F
:100E9200F5008630F4009930F300F30B4E2FF40B7B
:100EA2004E2FF50B4E2F7608831203138800770816
:100EB2000800203084003230F8000408F9001030B5
:100EC200FA007808840083130008FB00F80A790806
:100ED20084007B088000F90AFA0B622F8312031345
:100EE200850186018701880189018316031789011B
:100EF200013088000130831603138500013086001B
:100F020087018801F8308900083081009F01413053
:100F1200831203139F00FF3088000230FA008630EC
:100F2200F9009930F800F80B942FF90B942FFA0B73
:100F3200942F8312031388010230FA008630F900DD
:100F42009930F800F80BA32FF90BA32FFA0BA32F5C
:100F520083120313881708130A128A1100270A1230
:100F62008A11F800780883120313B0008813081757
:100F72000A128A1100270A128A11F80078088312CD
:100F82000313B1003008F80001300310F80DFF3EE2
:100F9200031DC62F0310780DF9007908B00031083F
:100FA2003007F8007808B1003108203E840083132E
:100FB20000088800881708170830FA009D30F900E9
:100FC2000530F800F80BE32FF90BE32FFA0BE32FB0
:100FD200EA2FA92F0A128A11002883134230FD003A
:100FE2000630FE00C230FF00323084000A128A113D
:0E0FF200D6260A128A1183010A128A115A2F7A
:04400E00E4E0FFFEED
:00000001FF
